{
  "address": "0x5397f6D3E19468450CA9a0ae8848EB9456419276",
  "abi": [
    {
      "inputs": [
        {
          "internalType": "address",
          "name": "beneficiaryAddress",
          "type": "address"
        },
        {
          "internalType": "uint64",
          "name": "startTimestamp",
          "type": "uint64"
        },
        {
          "internalType": "uint64",
          "name": "durationSeconds",
          "type": "uint64"
        }
      ],
      "stateMutability": "nonpayable",
      "type": "constructor"
    },
    {
      "anonymous": false,
      "inputs": [
        {
          "indexed": true,
          "internalType": "address",
          "name": "token",
          "type": "address"
        },
        {
          "indexed": false,
          "internalType": "uint256",
          "name": "amount",
          "type": "uint256"
        }
      ],
      "name": "ERC20Released",
      "type": "event"
    },
    {
      "anonymous": false,
      "inputs": [
        {
          "indexed": false,
          "internalType": "uint256",
          "name": "amount",
          "type": "uint256"
        }
      ],
      "name": "EtherReleased",
      "type": "event"
    },
    {
      "anonymous": false,
      "inputs": [
        {
          "indexed": false,
          "internalType": "uint8",
          "name": "version",
          "type": "uint8"
        }
      ],
      "name": "Initialized",
      "type": "event"
    },
    {
      "inputs": [],
      "name": "beneficiary",
      "outputs": [
        {
          "internalType": "address",
          "name": "",
          "type": "address"
        }
      ],
      "stateMutability": "view",
      "type": "function"
    },
    {
      "inputs": [],
      "name": "duration",
      "outputs": [
        {
          "internalType": "uint256",
          "name": "",
          "type": "uint256"
        }
      ],
      "stateMutability": "view",
      "type": "function"
    },
    {
      "inputs": [
        {
          "internalType": "address",
          "name": "beneficiaryAddress",
          "type": "address"
        },
        {
          "internalType": "uint64",
          "name": "startTimestamp",
          "type": "uint64"
        },
        {
          "internalType": "uint64",
          "name": "durationSeconds",
          "type": "uint64"
        }
      ],
      "name": "initialize",
      "outputs": [],
      "stateMutability": "nonpayable",
      "type": "function"
    },
    {
      "inputs": [
        {
          "internalType": "address",
          "name": "token",
          "type": "address"
        }
      ],
      "name": "release",
      "outputs": [],
      "stateMutability": "nonpayable",
      "type": "function"
    },
    {
      "inputs": [],
      "name": "release",
      "outputs": [],
      "stateMutability": "nonpayable",
      "type": "function"
    },
    {
      "inputs": [],
      "name": "released",
      "outputs": [
        {
          "internalType": "uint256",
          "name": "",
          "type": "uint256"
        }
      ],
      "stateMutability": "view",
      "type": "function"
    },
    {
      "inputs": [
        {
          "internalType": "address",
          "name": "token",
          "type": "address"
        }
      ],
      "name": "released",
      "outputs": [
        {
          "internalType": "uint256",
          "name": "",
          "type": "uint256"
        }
      ],
      "stateMutability": "view",
      "type": "function"
    },
    {
      "inputs": [],
      "name": "start",
      "outputs": [
        {
          "internalType": "uint256",
          "name": "",
          "type": "uint256"
        }
      ],
      "stateMutability": "view",
      "type": "function"
    },
    {
      "inputs": [
        {
          "internalType": "uint64",
          "name": "timestamp",
          "type": "uint64"
        }
      ],
      "name": "vestedAmount",
      "outputs": [
        {
          "internalType": "uint256",
          "name": "",
          "type": "uint256"
        }
      ],
      "stateMutability": "view",
      "type": "function"
    },
    {
      "inputs": [
        {
          "internalType": "address",
          "name": "token",
          "type": "address"
        },
        {
          "internalType": "uint64",
          "name": "timestamp",
          "type": "uint64"
        }
      ],
      "name": "vestedAmount",
      "outputs": [
        {
          "internalType": "uint256",
          "name": "",
          "type": "uint256"
        }
      ],
      "stateMutability": "view",
      "type": "function"
    },
    {
      "stateMutability": "payable",
      "type": "receive"
    }
  ],
  "transactionHash": "0xf7a0cf396c9c4c892def0c8fa01572780235667a42809dce0ba3f89c3f3b344c",
  "args": [
    "0x49707808908f0C2450B3F2672E012eDBf49eD808",
    1655485200,
    31536000
  ],
  "numDeployments": 1,
  "solcInputHash": "b84c855bce2313d0d51514582d1bae81",
  "bytecode": "0x60806040523480156200001157600080fd5b506040516200101d3803806200101d8339810160408190526200003491620001ea565b6000620000426001620000ac565b905080156200005b576000805461ff0019166101001790555b8015620000a2576000805461ff0019169055604051600181527f7f26b83ff96e1f2b6a682f133852f6798a09c465da95921460cefb38474024989060200160405180910390a15b5050505062000241565b60008054610100900460ff161562000145578160ff166001148015620000e55750620000e330620001c360201b6200048c1760201c565b155b6200013d5760405162461bcd60e51b815260206004820152602e602482015260008051602062000ffd83398151915260448201526d191e481a5b9a5d1a585b1a5e995960921b60648201526084015b60405180910390fd5b506000919050565b60005460ff808416911610620001a45760405162461bcd60e51b815260206004820152602e602482015260008051602062000ffd83398151915260448201526d191e481a5b9a5d1a585b1a5e995960921b606482015260840162000134565b506000805460ff191660ff92909216919091179055600190565b919050565b6001600160a01b03163b151590565b80516001600160401b0381168114620001be57600080fd5b6000806000606084860312156200020057600080fd5b83516001600160a01b03811681146200021857600080fd5b92506200022860208501620001d2565b91506200023860408501620001d2565b90509250925092565b610dac80620002516000396000f3fe6080604052600436106100955760003560e01c806386d1a69f1161005957806386d1a69f1461015d57806396132521146101725780639852595c14610187578063989a8366146101bd578063be9a6555146101dd57600080fd5b80630a17b06b146100a15780630fb5a6b4146100d457806319165587146100f357806338af3eed14610115578063810ec23b1461013d57600080fd5b3661009c57005b600080fd5b3480156100ad57600080fd5b506100c16100bc366004610ade565b610203565b6040519081526020015b60405180910390f35b3480156100e057600080fd5b5060365467ffffffffffffffff166100c1565b3480156100ff57600080fd5b5061011361010e366004610b10565b610227565b005b34801561012157600080fd5b506035546040516001600160a01b0390911681526020016100cb565b34801561014957600080fd5b506100c1610158366004610b2b565b6102e4565b34801561016957600080fd5b50610113610389565b34801561017e57600080fd5b506033546100c1565b34801561019357600080fd5b506100c16101a2366004610b10565b6001600160a01b031660009081526034602052604090205490565b3480156101c957600080fd5b506101136101d8366004610b5e565b610411565b3480156101e957600080fd5b50603554600160a01b900467ffffffffffffffff166100c1565b600061022161021160335490565b61021b9047610bb7565b8361049b565b92915050565b6001600160a01b03811660009081526034602052604081205461024a83426102e4565b6102549190610bcf565b6001600160a01b038316600090815260346020526040812080549293508392909190610281908490610bb7565b90915550506040518181526001600160a01b038316907fc0e523490dd523c33b1878c9eb14ff46991e3f5b2cd33710918618f2a39cba1b9060200160405180910390a26102e0826102da6035546001600160a01b031690565b8361055e565b5050565b6001600160a01b038216600090815260346020526040812054610382906040516370a0823160e01b81523060048201526001600160a01b038616906370a082319060240160206040518083038186803b15801561034057600080fd5b505afa158015610354573d6000803e3d6000fd5b505050506040513d601f19601f820116820180604052508101906103789190610be6565b61021b9190610bb7565b9392505050565b600061039460335490565b61039d42610203565b6103a79190610bcf565b905080603360008282546103bb9190610bb7565b90915550506040518181527fda9d4e5f101b8b9b1c5b76d0c5a9f7923571acfc02376aa076b75a8c080c956b9060200160405180910390a161040e6104086035546001600160a01b031690565b826105b5565b50565b600061041d60016106d3565b90508015610435576000805461ff0019166101001790555b610440848484610760565b8015610486576000805461ff0019169055604051600181527f7f26b83ff96e1f2b6a682f133852f6798a09c465da95921460cefb38474024989060200160405180910390a15b50505050565b6001600160a01b03163b151590565b603554600090600160a01b900467ffffffffffffffff168267ffffffffffffffff1610156104cb57506000610221565b60365467ffffffffffffffff16603554600160a01b900467ffffffffffffffff166104f69190610bb7565b8267ffffffffffffffff16111561050e575081610221565b60365467ffffffffffffffff16603554600160a01b900467ffffffffffffffff166105439067ffffffffffffffff8516610bcf565b61054d9085610bff565b6105579190610c1e565b9050610221565b604080516001600160a01b038416602482015260448082018490528251808303909101815260649091019091526020810180516001600160e01b031663a9059cbb60e01b1790526105b0908490610792565b505050565b8047101561060a5760405162461bcd60e51b815260206004820152601d60248201527f416464726573733a20696e73756666696369656e742062616c616e636500000060448201526064015b60405180910390fd5b6000826001600160a01b03168260405160006040518083038185875af1925050503d8060008114610657576040519150601f19603f3d011682016040523d82523d6000602084013e61065c565b606091505b50509050806105b05760405162461bcd60e51b815260206004820152603a60248201527f416464726573733a20756e61626c6520746f2073656e642076616c75652c207260448201527f6563697069656e74206d617920686176652072657665727465640000000000006064820152608401610601565b60008054610100900460ff161561071a578160ff1660011480156106f65750303b155b6107125760405162461bcd60e51b815260040161060190610c40565b506000919050565b60005460ff8084169116106107415760405162461bcd60e51b815260040161060190610c40565b506000805460ff191660ff92909216919091179055600190565b919050565b600054610100900460ff166107875760405162461bcd60e51b815260040161060190610c8e565b6105b0838383610864565b60006107e7826040518060400160405280602081526020017f5361666545524332303a206c6f772d6c6576656c2063616c6c206661696c6564815250856001600160a01b03166109459092919063ffffffff16565b8051909150156105b057808060200190518101906108059190610cd9565b6105b05760405162461bcd60e51b815260206004820152602a60248201527f5361666545524332303a204552433230206f7065726174696f6e20646964206e6044820152691bdd081cdd58d8d9595960b21b6064820152608401610601565b600054610100900460ff1661088b5760405162461bcd60e51b815260040161060190610c8e565b6001600160a01b0383166108f45760405162461bcd60e51b815260206004820152602a60248201527f56657374696e6757616c6c65743a2062656e6566696369617279206973207a65604482015269726f206164647265737360b01b6064820152608401610601565b603580546001600160a01b03949094166001600160e01b031990941693909317600160a01b67ffffffffffffffff93841602179092556036805467ffffffffffffffff191692909116919091179055565b6060610954848460008561095c565b949350505050565b6060824710156109bd5760405162461bcd60e51b815260206004820152602660248201527f416464726573733a20696e73756666696369656e742062616c616e636520666f6044820152651c8818d85b1b60d21b6064820152608401610601565b6001600160a01b0385163b610a145760405162461bcd60e51b815260206004820152601d60248201527f416464726573733a2063616c6c20746f206e6f6e2d636f6e74726163740000006044820152606401610601565b600080866001600160a01b03168587604051610a309190610d27565b60006040518083038185875af1925050503d8060008114610a6d576040519150601f19603f3d011682016040523d82523d6000602084013e610a72565b606091505b5091509150610a82828286610a8d565b979650505050505050565b60608315610a9c575081610382565b825115610aac5782518084602001fd5b8160405162461bcd60e51b81526004016106019190610d43565b803567ffffffffffffffff8116811461075b57600080fd5b600060208284031215610af057600080fd5b61038282610ac6565b80356001600160a01b038116811461075b57600080fd5b600060208284031215610b2257600080fd5b61038282610af9565b60008060408385031215610b3e57600080fd5b610b4783610af9565b9150610b5560208401610ac6565b90509250929050565b600080600060608486031215610b7357600080fd5b610b7c84610af9565b9250610b8a60208501610ac6565b9150610b9860408501610ac6565b90509250925092565b634e487b7160e01b600052601160045260246000fd5b60008219821115610bca57610bca610ba1565b500190565b600082821015610be157610be1610ba1565b500390565b600060208284031215610bf857600080fd5b5051919050565b6000816000190483118215151615610c1957610c19610ba1565b500290565b600082610c3b57634e487b7160e01b600052601260045260246000fd5b500490565b6020808252602e908201527f496e697469616c697a61626c653a20636f6e747261637420697320616c72656160408201526d191e481a5b9a5d1a585b1a5e995960921b606082015260800190565b6020808252602b908201527f496e697469616c697a61626c653a20636f6e7472616374206973206e6f74206960408201526a6e697469616c697a696e6760a81b606082015260800190565b600060208284031215610ceb57600080fd5b8151801515811461038257600080fd5b60005b83811015610d16578181015183820152602001610cfe565b838111156104865750506000910152565b60008251610d39818460208701610cfb565b9190910192915050565b6020815260008251806020840152610d62816040850160208701610cfb565b601f01601f1916919091016040019291505056fea264697066735822122090632b07c31e5962da170d1b6504f44896ae8216a5a75ed641a8d4a82af09e6764736f6c63430008090033496e697469616c697a61626c653a20636f6e747261637420697320616c726561",
  "devdoc": {
    "kind": "dev",
    "methods": {
      "beneficiary()": {
        "details": "Getter for the beneficiary address."
      },
      "constructor": {
        "custom:oz-upgrades-unsafe-allow": "constructor"
      },
      "duration()": {
        "details": "Getter for the vesting duration."
      },
      "release()": {
        "details": "Release the native token (ether) that have already vested. Emits a {TokensReleased} event."
      },
      "release(address)": {
        "details": "Release the tokens that have already vested. Emits a {TokensReleased} event."
      },
      "released()": {
        "details": "Amount of eth already released"
      },
      "released(address)": {
        "details": "Amount of token already released"
      },
      "start()": {
        "details": "Getter for the start timestamp."
      },
      "vestedAmount(address,uint64)": {
        "details": "Calculates the amount of tokens that has already vested. Default implementation is a linear vesting curve."
      },
      "vestedAmount(uint64)": {
        "details": "Calculates the amount of ether that has already vested. Default implementation is a linear vesting curve."
      }
    },
    "version": 1
  },
  "userdoc": {
    "kind": "user",
    "methods": {},
    "version": 1
  },
  "storageLayout": {
    "storage": [
      {
        "astId": 326,
        "contract": "contracts/PHUBVesting.sol:PHUBVesting",
        "label": "_initialized",
        "offset": 0,
        "slot": "0",
        "type": "t_uint8"
      },
      {
        "astId": 329,
        "contract": "contracts/PHUBVesting.sol:PHUBVesting",
        "label": "_initializing",
        "offset": 1,
        "slot": "0",
        "type": "t_bool"
      },
      {
        "astId": 1047,
        "contract": "contracts/PHUBVesting.sol:PHUBVesting",
        "label": "__gap",
        "offset": 0,
        "slot": "1",
        "type": "t_array(t_uint256)50_storage"
      },
      {
        "astId": 23,
        "contract": "contracts/PHUBVesting.sol:PHUBVesting",
        "label": "_released",
        "offset": 0,
        "slot": "51",
        "type": "t_uint256"
      },
      {
        "astId": 27,
        "contract": "contracts/PHUBVesting.sol:PHUBVesting",
        "label": "_erc20Released",
        "offset": 0,
        "slot": "52",
        "type": "t_mapping(t_address,t_uint256)"
      },
      {
        "astId": 29,
        "contract": "contracts/PHUBVesting.sol:PHUBVesting",
        "label": "_beneficiary",
        "offset": 0,
        "slot": "53",
        "type": "t_address"
      },
      {
        "astId": 31,
        "contract": "contracts/PHUBVesting.sol:PHUBVesting",
        "label": "_start",
        "offset": 20,
        "slot": "53",
        "type": "t_uint64"
      },
      {
        "astId": 33,
        "contract": "contracts/PHUBVesting.sol:PHUBVesting",
        "label": "_duration",
        "offset": 0,
        "slot": "54",
        "type": "t_uint64"
      },
      {
        "astId": 318,
        "contract": "contracts/PHUBVesting.sol:PHUBVesting",
        "label": "__gap",
        "offset": 0,
        "slot": "55",
        "type": "t_array(t_uint256)48_storage"
      }
    ],
    "types": {
      "t_address": {
        "encoding": "inplace",
        "label": "address",
        "numberOfBytes": "20"
      },
      "t_array(t_uint256)48_storage": {
        "base": "t_uint256",
        "encoding": "inplace",
        "label": "uint256[48]",
        "numberOfBytes": "1536"
      },
      "t_array(t_uint256)50_storage": {
        "base": "t_uint256",
        "encoding": "inplace",
        "label": "uint256[50]",
        "numberOfBytes": "1600"
      },
      "t_bool": {
        "encoding": "inplace",
        "label": "bool",
        "numberOfBytes": "1"
      },
      "t_mapping(t_address,t_uint256)": {
        "encoding": "mapping",
        "key": "t_address",
        "label": "mapping(address => uint256)",
        "numberOfBytes": "32",
        "value": "t_uint256"
      },
      "t_uint256": {
        "encoding": "inplace",
        "label": "uint256",
        "numberOfBytes": "32"
      },
      "t_uint64": {
        "encoding": "inplace",
        "label": "uint64",
        "numberOfBytes": "8"
      },
      "t_uint8": {
        "encoding": "inplace",
        "label": "uint8",
        "numberOfBytes": "1"
      }
    }
  }
}